:1000000020040020FD1C0000751B0000F91C0000EE
:10001000F91C0000F91C0000F91C0000F91C00008C
:10002000000000000000000000000000F91C0000BB
:10003000F91C000000000000F91C0000F91C000081
:10004000110E0000850D0000A10E0000E90E000059
:10005000B511000001130000991600009D18000062
:04006000A5180000DF
:040064004000350023
:100068000348044B834202D0034B03B1184770473F
:10007800040000200400002000000000064B07498F
:10008800C91A891048BF0131491003D0044B0BB17C
:1000980001481847704700BF0400002004000020F2
:1000A8000000000010B5064C237843B9FFF7D8FFCD
:1000B800044B13B10448AFF300800123237010BD33
:1000C8003C0400200000000084A2000108B5054B94
:1000D8001BB105490548AFF30080BDE80840FFF7AC
:1000E800CDBF00BF000000004004002084A2000132
:1000F800042800D0704708B50549064800F064FC9C
:1001080000B908BD0D21044B044A054801F0E0FC84
:100118003027000064040020581E0000D01E000094
:100128006C1E00000379022B02D10122014B1A70C8
:10013800704700BF58040020D9B1F0B591F90030DC
:100148000D4683B09BB100260A4C0B4F012238465E
:100158000DF107018DF80730267000F0EBFB2378CE
:10016800002BFCD0267015F9013F002BEED103B00F
:10017800F0BD7047580400206404002070B5B02614
:10018800254D82B001223C21284600F0E5FE0346B9
:1001980000283AD1022101A88DF804308DF80560B5
:1001A80000F062FB01223C21284600F0D5FE034600
:1001B80058BB022101A8ADF8043000F055FB01221C
:1001C8003C21284600F0C8FEF8B94FF480530221BC
:1001D80001A8ADF80430802400F046FB01223C2140
:1001E800284600F0B9FE80B94023022101A8ADF8E5
:1001F800043000F039FB631E13F0FF04EED1013622
:10020800F6B2B82EBED102B070BDCA21034B044A63
:10021800044801F05DFC00BF94040020581E000053
:10022800DC1E0000801E000010B53C2082B000F0EB
:10023800F7FA01223C21CD4800F08EFE002840F05C
:10024800A5814FF42E43022101A8ADF8043000F037
:100258000BFB01223C21C54800F07EFE0346002826
:1002680040F09481022101A8ADF8043000F0FCFAB6
:1002780001223C21BD4800F06FFE002840F0868135
:100288004FF48053022101A8ADF8043000F0ECFAD5
:1002980001223C21B54800F05FFE002840F076813D
:1002A8004FF48043022101A8ADF8043000F0DCFAD5
:1002B80001223C21AD4800F04FFE002840F0668145
:1002C8004FF43043022101A8ADF8043000F0CCFA15
:1002D80001223C21A54800F03FFE002840F056814D
:1002E8004FF40143022101A8ADF8043000F0BCFA34
:1002F80001223C219D4800F02FFE002840F0468155
:100308004FF47F43022101A8ADF8043000F0ACFAA5
:1003180001223C21954800F01FFE002840F036815C
:100328004FF42143022101A8ADF8043000F09CFAF3
:1003380001223C218D4800F00FFE002840F0268164
:100348004FF42643022101A8ADF8043000F08CFADE
:1003580001223C21854800F0FFFD002840F016816D
:100368004FF42843022101A8ADF8043000F07CFACC
:1003780001223C217D4800F0EFFD002840F0068175
:100388004FF47C53022101A8ADF8043000F06CFA58
:1003980001223C21754800F0DFFD002840F0F6807E
:1003A8004FF44843022101A8ADF8043000F05CFA8C
:1003B80001223C216D4800F0CFFD002840F0E68086
:1003C8004FF45343022101A8ADF8043000F04CFA71
:1003D80001223C21654800F0BFFD0346002840F09B
:1003E800D580022101A8ADF8043000F03DFA0122C1
:1003F8003C215E4800F0B0FD002840F0C7804FF473
:100408005543022101A8ADF8043000F02DFA01226D
:100418003C21564800F0A0FD002840F0B7804FF47A
:100428000043022101A8ADF8043000F01DFA0122B2
:100438003C214E4800F090FD002840F0A7804FF482
:100448005843022101A8ADF8043000F00DFA01224A
:100458003C21464800F080FD002840F097804FF48A
:10046800A063022101A8ADF8043000F0FDF90122D3
:100478003C213E4800F070FD002840F087804FF492
:100488005943022101A8ADF8043000F0EDF901222A
:100498003C21364800F060FD002877D14FF47143C5
:1004A800022101A8ADF8043000F0DEF901223C2158
:1004B8002E4800F051FD002868D14FF45A4302211C
:1004C80001A8ADF8043000F0CFF901223C212748FB
:1004D80000F042FD002859D14FF49053022101A8A1
:1004E800ADF8043000F0C0F901223C211F4800F0AB
:1004F80033FD00284AD14FF45B43022101A8ADF82F
:10050800043000F0B1F901223C21184800F024FD24
:1005180000283BD14FF44053022101A8ADF8043024
:1005280000F0A2F901223C21104800F015FD68BB3B
:100538004FF40D43022101A8ADF8043000F094F9FE
:1005480001223C21094800F007FDF8B94FF4A053F7
:10055800022101A8ADF8043000F086F901223C21FF
:10056800024800F0F9FC044680B901E09404002038
:100578004FF42F43022101A8ADF8043000F074F9BC
:10058800FFF7FCFD044B1C7002B010BDCA21034BE1
:10059800034A044801F09CFA59040020581E000040
:1005A800DC1E0000801E00002DE9F04F874B471E1F
:1005B8007F000139FFB21B78A2F12004C900A7F11E
:1005C8005008CEB201223C21814885B0E4B25FFADE
:1005D80088F8002B40F0A68000F0BEFC002840F010
:1005E800EF8003AD02218DF80C0028468DF80D80B0
:1005F8004FEA161A00F038F901223C2174484AF0F3
:10060800100A00F0A9FC002840F0DA8002218DF8D9
:100618000C0028468DF80DA000F026F901223C2197
:100628006B4806F0080600F097FC002840F0C880E8
:10063800DFF8B4B18DF80C00022128468DF80D6062
:100648000BF1080800F010F9DFF88491230108EB9A
:10065800041800930BEB0414019601223C21484630
:1006680014F8016B00F078FC002840F0A9804022C3
:10067800022128468DF80D608DF80C2000F0F4F862
:100688004445EAD14F3F01223C215148019EFFB227
:1006980000F062FC002840F0938002218DF80C00E5
:1006A80028468DF80D7000F0DFF801223C214848FB
:1006B80000F052FC002840F0838002218DF80C00E5
:1006C80028468DF80DA000F0CFF801223C214048C3
:1006D80000F042FC002873D18DF80C000221284656
:1006E8008DF80D6000F0C0F8009A3A4BD41D384FD1
:1006F8005C4403EB020801223C21384614F8016FE0
:1007080000F02AFC00285BD14023022128468DF8FE
:100718000D608DF80C3000F0A7F84445EBD105B01A
:10072800BDE8F08F00F018FC002849D103AD022184
:100738008DF80C0028468DF80D80370900F094F8E4
:1007480001223C21224847F0100700F005FCB8BB05
:1007580002218DF80C0028468DF80D7000F084F801
:1007680001223C211A4806F0080600F0F5FB38BBC8
:100778008DF80C00022128468DF80D6004EB440426
:1007880000F072F8144B640003F10508661E104F60
:100798001E44A04401223C21384616F8014F00F0BF
:1007A800DBFB68B94023022128468DF80D408DF8FF
:1007B8000C3000F059F84645ECD105B0BDE8F08F93
:1007C800CA21064B064A074801F082F9590400205D
:1007D80094040020FF1E0000E0240000581E0000C2
:1007E800DC1E0000801E0000F01E0000F8B5154653
:1007F800127862B106460F46002439190134304692
:10080800C9B2E4B2FFF7D0FE2A5D002AF5D1F8BDDF
:1008180010B1024B02791A70704700BF5A040020C9
:1008280010B50C4904460C4800F0EAFB30B9012227
:100838002146094800F090FB30B910BD0F21074B45
:10084800074A084801F044F91121044B044A0548B5
:1008580001F03EF96427000094040020941E000073
:1008680020270000A81E000038B504460A460023C9
:1008780021460D4800F076FB78B901230B4D64241E
:100888002B7001E0013C07D04FF47A71012001F090
:1008980027F92B78032BF5D138BD2B21044B054ABA
:1008A800054801F015F900BF940400205A040020FF
:1008B800581E000008270000A81E000008B50420E4
:1008C800FFF716FCFFF7B0FC102101200E4AFFF7D6
:1008D8008DFF102104200C4AFFF788FF01210A4AE6
:1008E8000846FFF783FF01210420074AFFF77EFF30
:1008F800064C21460420FFF71FFC4FF47A714FF491
:10090800FA7001F0EDF8F4E7BC1E0000C01E00000C
:10091800022800D070470249024800F027BE00BFF5
:10092800942700005C04002008B5FFF7C7FF0020EB
:1009380008BD00BF10B4046AA37803F07B03A3705A
:100948008378046A03F00303D21A0B44C0E9033224
:10095800A37843F08003A370837803F00303022B8A
:1009680006D0036A0A780020DA705DF8044B7047F5
:100978000B88026A43F47E43D38100205DF8044B60
:10098800704700BFF0B5846A85B005460F469446A7
:100998006E46B4B194E80F0086E80F00EB69204674
:1009A8001B78A760236084F804C0EB6AE3606B6A75
:1009B8009847AC6A1CB196E80F0084E80F0005B0B0
:1009C800F0BD3446EAE700BF0122034608788240BA
:1009D80012F0060F05D0CA6952681278120700F1A2
:1009E800CB8100224FF0010C00F580002DE9F04189
:1009F80000F58C500002C3E907101A704D69987809
:100A08005D628D696CF30100C3E90A259870487826
:100A1800D44C904214BF65460225987865F30100CE
:100A2800987091F90B5091F80AE0680905F01F06D3
:100A380020300CFA06F644F82060BFF34F8FBFF35E
:100A48006F8FC94805F1C00650F8267062F3104749
:100A580040F8267050F82660C44E4FEA0E1E6719FB
:100A68005FFA8EFE87F800E346F8253091F90550C5
:100A780091F804E06F0905F01F0820370CFA08F810
:100A880044F82780BFF34F8FBFF36F8F05F1C0077E
:100A980050F8278062F3104840F8278050F82770F4
:100AA8004FEA0E1E67195FFA8EFE87F800E346F8D4
:100AB800253091F9075091F806E06F0905F01F08F5
:100AC80020370CFA08F844F82780BFF34F8FBFF39C
:100AD8006F8F05F1C00750F8278062F3104840F87F
:100AE800278050F827704FEA0E1E67195FFA8EFEAE
:100AF80087F800E346F8253091F9095091F808E0A5
:100B08006F0905F01F0820370CFA08F844F8278009
:100B1800BFF34F8FBFF36F8F05F1C00750F82780E1
:100B280062F3104840F8278050F827004FEA0E106B
:100B3800C0B22C4484F8000346F82530EFF3108641
:100B48008CF310884FF000450C788948E5404468DC
:100B580024EA05044460406886F31088186A8270A5
:100B6800186A0271186A4272186A8272186AC27226
:100B7800186A428340F2F93208780CFA00FC1CEA41
:100B8800020F02D040201A6AD0740625012240F2D2
:100B9800F9301C6A25770C78A240024240F0CA80DE
:100BA800CA7848788C78D200032842EA041200F008
:100BB800D58000280CBFE220F2201C6AD2B2227035
:100BC8001A6A9071CC69227B082A00F0C380186ADF
:100BD800520002F00202427300256278A078D20126
:100BE800400100F02000D2B20243186A0572207852
:100BF80002380128186A40F2A280D2B2C271606835
:100C08001A6A847854704578147865F3010414706E
:100C1800C4789474D479007804F0A30400F05C00DC
:100C28002043D0710020C3E90300C3E90500DC6953
:100C38004D4A94F90540CD6904F1C00152F821608C
:100C480095F800C060F3104642F821600CF0030CE0
:100C580052F82110BFF35F8F4FF0010E6109890030
:100C680004F01F0401F1604101F561410EFA04F43A
:100C7800C1F880410C60D96991F90B4004F1C001B9
:100C880052F8216060F3104642F8216052F82110B2
:100C9800BFF35F8F6109890004F01F0401F160410F
:100CA8000EFA04F401F56141C1F880410C60D9697C
:100CB80091F9074004F1C00152F8216060F3104631
:100CC80042F8216052F82110BFF35F8F6109890053
:100CD80004F01F0401F160410EFA04F401F56141CA
:100CE800C1F880410C60D96991F9091001F1C0047B
:100CF80052F8246060F3104642F8246052F8242029
:100D0800BFF35F8F4A09920001F01F0102F16042B0
:100D18000EFA01F102F56142C2F8801111601A6AF7
:100D28004CF0700C82F802C06989124A19815A6025
:100D3800BDE8F0814FF478401A6A908230E7FF25C9
:100D480045702078022808BF42F01002186AD2B213
:100D5800C27167E70A201A6A50733DE7F22042F031
:100D680040022AE700E100E000600040180500208A
:100D7800004008405549435303207047EFF303836D
:100D8800103B1F4A5BB203F1C00152F8210020F466
:100D9800803042F8210052F821201A4A52F82300E4
:100DA800C3691B6983B1036903B17047026A0021F3
:100DB800937803F07F0343F004039370436AC160A0
:100DC800C3B18022FFF7DEBD0369026A002BEED0B3
:100DD8008378C16803F00303022B0CD00B78D3701F
:100DE8008278D0E9031302F003029B1A1144C0E988
:100DF8000313D9E770470B8843F47E43D381EFE7A9
:100E0800006000401805002010B582B0EFF303839E
:100E1800103B1F4A5BB203F1C00152F8210020F4D5
:100E2800803042F8210052F821201A4A52F8234013
:100E3800A27802F00303022B236A0CBF198A59799E
:100E4800A3690CBFC1F30801C9B2019143B9636A30
:100E5800B3B10422204602B0BDE81040FFF792BDAE
:100E680002F0030201A9606900F0E4FFD4E905215A
:100E7800A37803F003031A44C91AC4E9052109B188
:100E880002B010BD636A002BFAD00122E2E700BF6E
:100E9800006000401805002010B5EFF303830E4AE8
:100EA800103B5CB252F82400026A937803F07B038B
:100EB8009370436A1BB102220021FFF763FD074AC2
:100EC80004F1C00352F8231021F4803142F82310B2
:100ED80052F8233010BD00BF180500200060004004
:100EE80010B5EFF303831A4A103B5CB252F82400A2
:100EF800837803F00303022B036A0CBF198A59791C
:100F080093F804C00CBFC1F30801C9B21CF0100F5C
:100F18000CF0380206D093F81CC01CF0010F08BF73
:100F280042F0400293F804C00CF0C70C83F804C0E8
:100F3800436A0BB1FFF726FD064A04F1C00352F8D5
:100F4800231021F4803142F8231052F8233010BDC9
:100F580018050020006000400346002059601A72FE
:100F6800704700BF90F808C08161BCF1010F80F89C
:100F78002E30C2613AD090F82AC0002380F82D3074
:100F880080F82F3080F8313080F83330026290F8E2
:100F98002D2080F82BC080F82C30436212B1012339
:100FA80080F83130B42203699A7090F8303023B950
:100FB800512203690020DA727047002290F82A3023
:100FC80080F83020012B0CBF90F8282090F82920B9
:100FD8000369DA7090F82B2090F82C30013A01332D
:100FE80080F82B2080F82C300020704700214368BF
:100FF80080F82AC05B0080F8283080F82910BCE708
:1010080003460022F0B50878196000F5800000F565
:101018008C500002186188685860087B1872C8698B
:101028005863086AC3E90E20EFF310864FF0010EEB
:101038008EF310884FF000450C784948E540446825
:1010480024EA05044460406886F31088F025FA27EE
:101058001868446A186982701869C5722325A078CF
:101068001E6900F003003070186987711869667886
:10107800467020781E69800040F02000C0B2F071F0
:101088001869667906721869E678867420791C6989
:10109800C00040EA0E00C0B260721869314E857215
:1010A8001869314D427391F80DC091F90F004FEA5C
:1010B8000C1C2E4C2F185FFA8CFC87F800C346F8DE
:1010C800203000F1C00C54F82C7062F3104744F83B
:1010D8002C7054F82C70BFF35F8F4FEA501C4FEA06
:1010E8008C0C00F01F000CF1604C0EFA00F00CF5AF
:1010F800614CCCF88001CCF80000487B91F91010C5
:1011080000010D44C0B285F8000346F8213001F112
:10111800C00054F8205062F3104544F8205054F8A9
:101128002000BFF35F8F01F01F004909890001F11A
:1011380060410EFA00F001F56141C1F880010860D4
:101148000B49C3E9082283F82D209A6183F82E20E1
:10115800DA6183F82F20D96083F830201046F0BD7B
:10116800004008401805002000E100E00060004051
:101178004332495330B5836B83B004460A466D4603
:101188008BB193E8030085E80300E16B1A711960DD
:101198001846636B9847A36B1BB195E8030083E877
:1011A800030003B030BD2B46EFE700BF10B4EFF3E8
:1011B8000383103B4E4A5BB2C03352F8231021F42C
:1011C800803142F8231052F82330EFF30383494A61
:1011D800103B5BB252F823301A69117BC1F3000C43
:1011E800C9072CD493F82C1093F82A00884214D0FD
:1011F80093F82D0008B102294FD093F82810D17028
:1012080093F82B1093F82C200139013283F82B1016
:1012180083F82C205DF8044B7047196A002933D0F5
:1012280093F82D0000283ED1586A9C690139245C46
:101238000130C3E90810D4705DF8044B704793F887
:101248002D10B9B193F83110A1B9507999695A6A3A
:10125800885493F82E00D3E9081201390132C3E902
:10126800081200283AD0522001221969C87283F85E
:101278003020CFE70024012054211C6283F82F007E
:10128800D1725DF8044B704793F82E1041B152208B
:101298000121D07283F83010BCE75223D372B9E72A
:1012A8005423D372B6E793F8310078B95079996925
:1012B8005A6A8854D3E9081201390132C3E908127D
:1012C80001291A690ED0FF24D470B5E7012983F8E3
:1012D80031C007D082F80AC0196AF1E754221B69A5
:1012E800DA7297E72021FF2491721A69D470A3E774
:1012F800006000401805002010B5EFF30383344A5E
:10130800103B5BB252F823000269D37A23F008033A
:10131800D37290F82F30002B3DD190F82A2003F09B
:10132800FF0190F82C309A421CD1036A5BB990F8FF
:101338002D1090F83020C1F103010469C9B2C2B37D
:10134800E372FFF717FFEFF30383103B214A5BB209
:10135800C03352F8231021F4803142F8231052F898
:10136800233010BDF3B190F82D4004F0FF0244B3D0
:10137800022B28D00B4600210269D1720269D37072
:1013880090F82B2090F82C30013A013380F82B206C
:1013980080F82C30D7E7F02203690121DA72FFF7D1
:1013A800E9FED0E7012A0CBF90F8283090F82930E0
:1013B800E1E7F023E3720269937803F0CF039370B7
:1013C800BFE71346D7E790F8293043F00103D2E787
:1013D80018050020006000402DE9F84F0388DBB1B4
:1013E80082464FF0000B4FF00109DFF8D08000244F
:1013F800304D4FEACB07DAF8043035F8022BD9190B
:10140800898891420AD00134032CF4D1BAF800300B
:101418000BF1010B5B45EAD8BDE8F88FDB5909FAF7
:1014280004F603F0B853B3F1807FF6B298F8BB34F2
:1014380013D0334231D1204A04F1200612F8163075
:10144800DB09E0D012F81630012123F08003C82010
:1014580002F8163000F044FBD5E7334211D0164AA3
:1014680004F1200112F81130DB09CCD112F8113047
:10147800C82043F0800302F81130012100F030FB4E
:10148800C1E7012000F00AFC98F8BB34012033437F
:1014980088F8BB3400F0D2FBE1E7012000F0FEFB46
:1014A80098F8BB34012023EA060388F8BB3400F01F
:1014B800C5FBC0E7F42700000030084000E0014009
:1014C800F8B50646FFF788FFEFF31082012383F390
:1014D8001088234F3B681BB92249CB704023CB703F
:1014E8003B6801333B6082F31088338823B30021C3
:1014F8001D4D08E01B01134445F823403288013193
:101508008BB29A4218D9736853F8314003EBC10281
:101518009288E0034FEA1223D2B2EBD502EB031014
:1015280055F820E024F4803C2EF4803E45F820E075
:101538001B0145F820C0DEE7EFF31082012383F397
:1015480010883B6813B13B68013B3B603B681BB9A3
:1015580080200449CB70C87082F31088F8BD00BFA2
:1015680014050020000D08400008084008B5034B8A
:1015780003600846FFF7A4FF002008BD54524F50EF
:1015880070B5836984B004468C46164601AD9BB19C
:1015980093E8070085E8070083F804C09E60E269C5
:1015A80018461A6063699847A3691BB195E8070054
:1015B80083E8070004B070BD2B46EDE701462DE92E
:1015C800F047EFF30383103B4FFA83FE2D4C0EF1E7
:1015D800C00503F0FF0C54F8253023F4803344F899
:1015E80025304FEA8E0303F1804303F5C043D3F857
:1015F8000023254A52F82E000A1F012A08D9002282
:1016080043691BB1BDE8F047FFF7BABFBDE8F087F3
:101618004668F26992F8482012F00307EFD196F86D
:1016280000A0D0F8088001F10E0208EB820203390D
:10163800BAF1010F5268C9B2E2D14FF00049C8F8B7
:1016480010908668C6F814908668C6F81890866860
:1016580077628668B76254F8258067F3104844F8C3
:101668002580D3F80033BFF35F8F0CF01F030AFA0D
:1016780003F64FEA5E1E054B0EF1600E43F82E602E
:10168800BEE700BF006000401805002000E100E050
:101698002DE9F041EFF30383103B7B4C59B201F184
:1016A800C00E54F82E2022F4803244F82E208A00EE
:1016B80002F1804202F5C042D2F80003734850F8A4
:1016C8002100456895F800C0ED69BCF1010F09D00B
:1016D80043692BB1BDE8F04100221146FFF750BF26
:1016E800BDE8F0814FF00008D0E90276BE60866858
:1016F80003F0FF03C6F848808668C6F84C80866801
:10170800C6F8508054F82E7068F3104744F82E70CD
:10171800D2F80023BFF35F8F5D4A490903F01F0326
:101728000CFA03F3603142F8213095F84830D907B4
:1017380003D595F92810414576DA9B0704D595F924
:101748002930002B80F2888095F92A30002B53DA53
:1017580095F92B30002B37DA95F92C30002B1BDA52
:1017680095F92D30002BB3DB474A03F1C00152F83D
:10177800214024F4803442F8214052F82120BFF35C
:101788005F8F01215A09424C03F01F03603201FAAE
:1017980003F344F822309BE73B4A03F1C00152F8B7
:1017A800214024F4803442F8214052F82120BFF32C
:1017B8005F8F01215A09364C03F01F03603201FA8A
:1017C80003F344F82230CBE72F4A03F1C00152F863
:1017D800214024F4803442F8214052F82120BFF3FC
:1017E8005F8F01215A092A4C03F01F03603201FA66
:1017F80003F344F82230AFE7234A03F1C00152F85B
:10180800214024F4803442F8214052F82120BFF3CB
:101818005F8F01215A091E4C03F01F03603201FA41
:1018280003F344F8223093E701F1C00354F823701E
:1018380068F3104744F8237054F82330BFF35F8FE0
:101848004C0901F01F010CFA01F304F1600142F8A0
:10185800213095F8483070E70B4A03F1C00152F87F
:10186800214024F4803442F8214052F82120BFF36B
:101878005F8F01215A09064C03F01F03603201FAF9
:1018880003F344F822305FE70060004018050020A9
:1018980000E100E00420FFF791BE00BF0520FFF73C
:1018A8008DBE00BF064B074993F826001A6A51F807
:1018B8002030C2F302620449D3400B60704700BF76
:1018C80000E001402004002048050020704700BFC8
:1018D800F8B54AF2035001234549464AA1F8FE03E8
:1018E800A2F80431B2F804319BB2002BFAD10120DE
:1018F8004FF400454FF0090C3F4CDFF818E13F4E1C
:10190800C4F804E0DFF810E13D4FC4F80CE0A2F899
:1019180000013C4A3649B06030602760A560256107
:10192800626191F82620086A54F82220364EC0F3E6
:101938000260C240326081F8133481F8A2C091F885
:1019480080341BB991F8813499074CD0284D95F80B
:101958008034002B3CD00022254B83F8812483F867
:1019680080240023224981F8323091F83C301A074C
:10197800FBD543F2021000231D4A088581F82A305E
:1019880092F83C309B06FBD50320052319494FF0FC
:10199800F10C81F81C011D49116282F8263092F879
:1019A8002630156A54F82300C5F30264E04030601D
:1019B8000123F0244FF42540154981F80CC00B721F
:1019C8000C7382F8303082F85230A2F8FE03F8BD6A
:1019D8000121C82085F8801400F082F895F8803439
:1019E800012BFBD1B7E74FF47A70FFF76FFFB8E729
:1019F80000E0014000C001402004002000700040C9
:101A0800002D310100C2EB0B4805002021120120F6
:101A18000020004000127A0000366E0138B500251B
:101A2800284C0121C82084F8285000F059F884F87F
:101A3800245094F82430002BFBD194F82430214909
:101A480043F0020384F8243091F82430C3F34000B3
:101A58009B07F9D41B4A81F8220092F8223003F040
:101A6800FF00002BF9D192F84030164960F3C713F4
:101A780082F8403091F84030DB09FBD191F8420000
:101A8800104A63F3C71081F8420092F84230DB092C
:101A9800FBD192F844000B4963F3C71082F8440065
:101AA80091F84430C3F3C014DB09F9D1012000F0E8
:101AB800F5F8054B012083F8BB44BDE8384000F039
:101AC800BDB800BF0030084000E00140704700BFCB
:101AD80000BEFEE7A0F101000028FBD1704700BF5F
:101AE8001F4B204A1B6800FB01F1934213D302F1FC
:101AF800854202F5071203F5741302F6834203F6D2
:101B0800FF03A2FB03231B0DA3FB01314FF0FF30A2
:101B1800F9B1FFF7DFBF4FF47A7210B4A1FB02C42A
:101B28001148B0FBF3F34FF0FF3044B9BCFBF3FCB2
:101B38004FEA9C0088B15DF8044BFFF7CBBF9B00D0
:101B4800B1FBF3F1A1FB0212002AF4D1084620B13F
:101B5800F1E71846002BDCD170475DF8044B70475D
:101B68004805002000127A0000CA9A3B70B500248C
:101B78000B4B0C4EB3F82021B3F84051ADB21540D1
:101B880025FA04F3DB0704D556F82430E0B203B194
:101B980098470134102CF3D1014BA3F8305170BD94
:101BA80000600040D404002030B5032085B000F068
:101BB80075F800256FF0FF014FF0FF301B4B1C4CF0
:101BC800996422462B464FF0010ECDE9010003909F
:101BD80032F8021F0EFA03FC013311B1012520EA85
:101BE8000C00092BF4D1F5B10190124B0F4A106784
:101BF800C3F88002029903205167C3F8841203993D
:101C08009167C3F8881200F019F800230A4834F8DD
:101C1800022F03F1C00101330AB140F82120092B3A
:101C2800F5D105B030BD4FF0FF30DEE70080004051
:101C3800DE27000000E100E000600040EFF31081C3
:101C4800012383F31088124B33F8102092B22AB183
:101C580033F81020013A92B223F8102033F81030EC
:101C68009BB293B910B40B4A0B4CB2F8FE3334F85C
:101C780010009BB243F4254323EA0003A2F8FE3385
:101C880081F310885DF8044B704781F31088704722
:101C98003C05002000E00140D428000030B4EFF3F8
:101CA8001081012383F310880E4A32F810309BB25A
:101CB8006BB90D4C0D4DB4F8FE3335F810C09BB21E
:101CC80043EA0C0343F425439BB2A4F8FE3332F8ED
:101CD800103001339BB222F8103081F3108830BCE9
:101CE800704700BF3C05002000E00140D4280000F8
:101CF80000BE704708B500F035F8FEF715FEFEE7A0
:101D0800F8B5174F05463E68A6B17C6806EB46064F
:101D180004EB860602E00C34B4420BD0637AAB4283
:101D2800F9D1D4E900020021121A0C3400F07AF833
:101D3800B442F3D1BE6896B1FC6804EB061602E023
:101D48001034A6420BD0637BAB42F9D1D4E9000230
:101D5800A168121A103400F06DF8A642F3D1F8BD4C
:101D6800FC2700004FF47001274B284A70B500206B
:101D7800C3F888109A60FEF7CBFDFFF7A9FD012094
:101D8800FEF7C6FD224B83F30A880020FFF7B8FF51
:101D9800FFF788FDFFF742FE0320FFF77FFF0023D0
:101DA8004FF6FF701B4903F1080201330C2B21F891
:101DB8001200F8D100240320FFF740FF0320FFF7AB
:101DC8006DFF154B03205C609C60DC601C61FFF7B5
:101DD80035FF0220FEF79CFD0120FFF791FF0F4D14
:101DE8000F4B5B1BA3424FEAA30605DD55F8043BE6
:101DF80001349847A642F9DCFFF7D6FEBDE87040EB
:101E08000020FFF763BE00BF00ED00E00000000007
:101E180020000020000D084000000E403829000076
:101E28003C29000002440346934200D1704703F85E
:101E3800011BF9E70A44431E914200D1704710B5CF
:101E480011F8014B914203F8014FF9D110BD000080
:101E58004653505F53554343455353203D3D2065FA
:101E6800727200002E2E2F7372632F554152542F19
:101E7800756172742E6300002E2E2F7372632F4FBC
:101E88004C45442F4F4C45442E6300006572722028
:101E98003D3D204653505F5355434345535300003F
:101EA8002E2E2F7372632F4949432F4949432E63BE
:101EB800000000004C00000048616C6C6F776F7286
:101EC80064210D0A00000000756172745F696E6913
:101ED800740000004F4C45445F5772697465526541
:101EE800676973746572000000000000000000005C
:101EF8000000000000000000000000F800000000E2
:101F0800000000333000000000100C06100C060022
:101F1800000000000000000040C07840C078400089
:101F2800043F04043F040400007088FC08300000EB
:101F3800001820FF211E0000F008F000E018000043
:101F480000211C031E211E0000F0088870000000FC
:101F58001E2123241927211010160E00000000004E
:101F68000000000000000000000000E0180402006B
:101F7800000000071820400000020418E0000000DC
:101F88000040201807000000404080F080404000DA
:101F98000202010F01020200000000F00000000030
:101FA8000101011F01010100000000000000000004
:101FB80080B0700000000000000000000000000079
:101FC8000001010101010101000000000000000002
:101FD800003030000000000000000000806018049D
:101FE800006018060100000000E010080810E0007A
:101FF800000F102020100F00001010F80000000043
:102008000020203F20200000007008080888700089
:102018000030282422213000003008888848300009
:102028000018202020110E000000C02010F8000029
:1020380000070424243F240000F8088888080800C2
:102048000019212020110E0000E0108888180000D7
:10205800000F112020110E0000380808C8380800A9
:102068000000003F00000000007088080888700029
:10207800001C222121221C0000E010080810E000AA
:102088000000312222110F00000000C0C000000033
:102098000000003030000000000000800000000058
:1020A8000000806000000000000080402010080050
:1020B8000001020408102000404040404040400019
:1020C80004040404040404000008102040800000F4
:1020D8000020100804020100007048080808F000F9
:1020E8000000003036010000C030C828E810E000C9
:1020F8000718272423140B000000C038E000000054
:10210800203C23020227382008F8888888700000BD
:10211800203F202020110E00C03008080808380091
:10212800071820202010080008F808080810E00008
:10213800203F202020100F0008F88888E8081000A9
:10214800203F20202320180008F88888E80810007D
:10215800203F200003000000C030080808380000B5
:1021680007182020221E020008F808000008F808B6
:10217800203F210101213F20000808F8080800003D
:102188000020203F2020000000000808F808080070
:10219800C08080807F00000008F888C028180800E8
:1021A800203F20012638200008F808000000000021
:1021B800203F20202020300008F8F800F8F8080018
:1021C800203F003F003F200008F830C00008F80812
:1021D800203F200007183F00E01008080810E00022
:1021E8000F10202020100F0008F808080808F00039
:1021F800203F210101010000E01008080810E0005C
:102208000F18242438504F0008F8888888887000F0
:10221800203F2000030C3020007088080808380090
:102228000038202121221C00180808F80808180086
:102238000000203F2000000008F808000008F80807
:10224800001F202020201F000878880000C83808B8
:10225800000007380E010000F80800F80008F80030
:10226800033C0700073C03000818688080681808CA
:1022780020302C03032C30200838C800C838080048
:102288000000203F2000000010080808C838080097
:102298002038262120201800000000FE020202003B
:1022A8000000007F40404000000C30C000000000EB
:1022B800000000010638C00000020202FE00000013
:1022C800004040407F0000000000040202020400B9
:1022D80000000000000000000000000000000000F6
:1022E80080808080808080800002020400000000DE
:1022F80000000000000000000000808080800000D6
:102308000019242222223F2008F8008080000000C3
:10231800003F112020110E00000000808080000086
:10232800000E112020201100000000808088F80095
:10233800000E112020103F200000808080800000C7
:10234800001F222222221300008080F0888888182B
:102358000020203F20200000000080808080800036
:10236800006B94949493600008F8008080800000CB
:10237800203F210000203F200080989800000000A6
:102388000020203F202000000000008098980000D6
:1023980000C08080807F000008F8000080808000F6
:1023A800203F24022D302000000808F8000000001B
:1023B8000020203F202000008080808080808000D6
:1023C800203F20003F20003F808000808080000068
:1023D800203F210000203F200000808080800000F6
:1023E800001F202020201F00808000808000000027
:1023F80080FFA12020110E00000000808080800056
:10240800000E112020A0FF80808080008080800046
:1024180020203F2120000100000080808080800073
:102428000033242424241900008080E080800000E8
:102438000000001F20200000808000000080800035
:10244800001F202020103F20808080000080808096
:1024580000010E3008060100808000800080808026
:102468000F300C030C300F0000808000808080004B
:102478000020312E0E312000808080000080808076
:1024880080818E7018060100008080808080800026
:102498000021302C2221300000000000807C020244
:1024A80000000000003F404000000000FF00000066
:1024B80000000000FF0000000002027C8000000015
:1024C8000040403F00000000000601010202040431
:1024D80000000000000000000000000000000000F4
:1024E800002F000000000700070000147F147F146D
:1024F80000242A7F2A1200626408132300364955F3
:10250800225000000503000000001C2241000000CA
:1025180041221C000014083E08140008083E080860
:10252800000000A0600000080808080800006060BB
:102538000000002010080402003E5149453E0000FA
:10254800427F4000004261514946002141454B31DC
:10255800001814127F10002745454539003C4A49A8
:10256800493000017109050300364949493600061A
:102578004949291E00003636000000005636000082
:1025880000081422410000141414141400004122FD
:10259800140800020151090600324959513E007CD5
:1025A8001211127C007F49494936003E41414122BF
:1025B800007F4141221C007F49494941007F0909A8
:1025C8000901003E4149497A007F0808087F000058
:1025D800417F4100002040413F01007F0814224113
:1025E800007F40404040007F020C027F007F0408CB
:1025F800107F003E4141413E007F09090906003E27
:102608004151215E007F091929460046494949314F
:102618000001017F0101003F4040403F001F204072
:10262800201F003F4038403F006314081463000730
:102638000870080700615149454300007F41410087
:1026480000552A552A55000041417F000004020127
:102658000204004040404040000001020400002005
:1026680054545478007F4844443800384444442043
:1026780000384444487F00385454541800087E09F0
:1026880001020018A4A4A47C007F080404780000B8
:10269800447D4000004080847D00007F1028440075
:1026A8000000417F4000007C04180478007C080486
:1026B800047800384444443800FC242424180018C2
:1026C800242418FC007C08040408004854545420AE
:1026D80000043F444020003C4040207C001C204037
:1026E800201C003C4030403C004428102844001C7A
:1026F800A0A0A07C004464544C4414141414141472
:102708005343495F494943325F77726974655F6231
:1027180079746573000000005343495F49494332A7
:102728005F496E6974000000040200000C000C018F
:102738000C020C0300000000000000002D01000046
:1027480000000000502700000001000000000020E9
:102758000F00FFFF00000000FFFF00000200000064
:10276800A086010078000000010CDF0405000000CD
:102778000000000000000000190800000000000030
:102788008C270000011400AC1E01000008000000A6
:10279800A027000000000000000001000801000060
:1027A800400001040C010000400001040D0100007C
:1027B800000001030E0100000000010000030000FA
:1027C8000000010305040000000001040B050000DF
:1027D800000001040C050000980199019A019B0171
:1027E8008D018E01D800D200D3000000020403043A
:1027F8000404000004000000A428000008000000F1
:1028080024280000020000001428000000000068CE
:102818000000006820000020200000200000006860
:10282800000000680000006000010C08000000685B
:10283800000000680000007000010908000000683E
:10284800000000680000000800010208000000689D
:10285800000000686400000000010108000000207A
:10286800000000200000006000010C0300000020B0
:102878000000002000000070000109030000002093
:1028880000000020000000080000020300000020F3
:10289800040000206400000000000103000000683C
:1028A80000000068000100080000006800000068DF
:1028B80000010008040000202000002000000003A0
:1028C8003C0400204C050020000000030100020029
:1028D80008001000200000004275696C74207769B8
:1028E80074682052656E6573617320416476616E09
:1028F80063656420466C657869626C6520536F6611
:102908007477617265205061636B616765207665D5
:102918007273696F6E20362E332E3000362E332EAA
:0829280030000000000003066E
:04293000F8B500BF37
:04293400F8B500BF33
:04293800D5000000C6
:04293C00AD000000EA
:020000040100F9
:04A10000FFFFFFFF5F
:04A20000FFFDFFFF60
:04A28000F8F8FFFFEC
:0400000300001CFDE0
:00000001FF
