:10000000A0040020ED26000065250000E926000080
:10001000E9260000E9260000E9260000E9260000A4
:10002000000000000000000000000000E9260000C1
:10003000E926000000000000E9260000E926000093
:1000400061170000D5160000F117000039180000F4
:10005000A51B0000F11C0000892000008D2200007B
:0400600095220000E5
:10006400B509000029090000950B0000B50A00003D
:10007400650800000000803F59100000AD0B00002F
:10008400211000000D1000000D0C00005D0D00009B
:100094004000350038000020000000001406002055
:1000A4007C060020E40600200000000000000000A0
:1000B400000000000000000000000000000000003C
:1000C400000000000000000000000000000000002C
:1000D400000000000000000000000000000000001C
:0400E4000000000018
:1000E8000348044B834202D0034B03B118477047BF
:1000F800840000208400002000000000064B07490F
:10010800C91A891048BF0131491003D0044B0BB1FB
:1001180001481847704700BF840000208400002071
:100128000000000010B5064C237843B9FFF7D8FF4C
:10013800044B13B10448AFF300800123237010BDB2
:10014800BC0400200000000084A2000108B5054B93
:100158001BB105490548AFF30080BDE80840FFF72B
:10016800CDBF00BF00000000C004002084A2000131
:100178002DE9F04F2DED028B042093B000F066F8C6
:10018800D02000F079FB4FF47A714FF4FA7002F046
:100198009FF924220DEB02040021204602F0C8FE3C
:1001A80000234FF47A714FF4FA700DF1180ACAE976
:1001B800013306939FED228A02F08AF9214DDFF878
:1001C80088B06F4620462B699847CDF814A00DF1EA
:1001D800340CBCE80F000FC7DCF8006094E80F008F
:1001E8003E606E69B047DDED077A67EE887A17EEF4
:1001F800900A02F09DFDDDED087A67EE887A0646E2
:1002080017EE900A0F4602F093FDDDED067A67EED1
:10021800887ACDE9020117EE900A02F089FD80463E
:1002280089460420594632463B46CDE9008900F00C
:1002380031F84FF47A71052002F04AF9C1E700BF9E
:10024800CDCC564218000020E4340000042800D029
:10025800704708B50549064801F05EF800B908BDC1
:100268001021044B044A054802F02AF95C360000C4
:100278002C050020F8340000EC3500000C35000097
:100288000379022B02D10122014B1A70704700BF7B
:10029800D80400200EB42DE9F04FADF5067D8F9DF2
:1002A800002D3BD095F9002090AB98460593AAB352
:1002B8004FF0000B01275E4683460DF1180A252AE8
:1002C80095F9013057D0A3F15C010AEB0600182913
:1002D8000ED8DFE801F02A0D0D0D0D0D0D0D0D0DD9
:1002E8000D0D0D0D0D0D0D0DA50D0D0D290DAC00F0
:1002F8000AF806201A463E460135EAB1771CB7F5DA
:10030800007FDCD15C46002340F2FF1B0026894DAC
:10031800042C5F468AF8FF312E701AD00DF5067D41
:10032800BDE8F04F03B070470D233E4695F9022013
:1003380003700235002AE1D100239E425C4637460D
:10034800B3460AF80630E9DD00267A4D042C2E70F3
:10035800E4D15A465146784800F094FF002840F00E
:100368005C82764B01E0013B02D02A78002AFAD061
:1003780000232B70D2E705F10109002BDCD0252BD7
:1003880021D02E2B26D04FF0FF34623B09F1010516
:10039800162B3ED8DFE813F0A901A10172013D0038
:1003A800D6003D003D003D003D003D003D003D00C4
:1003B8003D006B003D003D003D0052003D003D000A
:1003C8003D003D009A000AF80620023595F9002004
:1003D8003E4692E795F9023005F1020C6146BBB141
:1003E8000022574D144607E011F9013F0EEB400477
:1003F8000132002B00F0EE81D8B2285CA3F1300E58
:1004080010F0040F04EB8400EED1002A40F0E281E2
:100418006546202399F901200AF806303E466CE724
:100428000A2395F902203E460370023582E7092324
:1004380095F902203E46037002357BE758F8042BF5
:10044800002A00F0B88192F900306BB1711E514456
:10045800013603E00136B6F5007F32D001F8013FDE
:1004680012F9013F002BF5D199F9012045E758F819
:10047800040B0028C0F2768140F0E4810121374660
:1004880001367C1E5444013900F0F180002301221A
:1004980001338B424FEAC202FAD1B0FBF2F20023D9
:1004A800012701338B424FEAC707FAD1B0FBF7F3B4
:1004B80001363032B6F5007F07FB130004F8012F30
:1004C800E1D140F2FF1699F9012016E758F8044BDC
:1004D800002C40F073810121771E013906F10106D5
:1004E800574423D00023012201338B424FEA0212E2
:1004F800FAD1B4FBF2F20023012001338B424FEA18
:100508000010FAD1B4FBF0F300FB1344D3B2092A6C
:1005180094BF303337335BB207F8013F0029A3D0CB
:100528000136B6F5007FCCD00139DBD122460C4626
:10053800ECE700BFD80400202C05002041420F0042
:100548000B38000008F1070828F00708B8EC027B10
:100558000022002351EC170B8DED007B02F0A0FC6C
:10056800002840F00F81DDE9000102F0C1FC0028FD
:1005780040F043810122374601360146013F574486
:10058800013A00F02B814FF0000C01230CF1010C13
:1005980003EB830394454FEA4303F7D1B1FBF3FC24
:1005A8004FF0000E01230EF1010E03EB8303964575
:1005B8004FEA4303F7D10CF1300C07F801CFB1FB38
:1005C800F3FC0136B6F5007F03FB1C11D8D140F2CD
:1005D800FF1702F08BFB02460B46DDE9000102F033
:1005E80047FA002CCDE90001C0F2058100F0138123
:1005F80000230120013300EB8000A3424FEA4000B2
:10060800F8DB02F073FBDDE9002302F003F97E1C3E
:1006180002F06EFCB6F5007F3FF453AF013F013C9A
:10062800574424D0002201231146013203EB8303EF
:1006380094424FEA4303F7D1B0FBF3F24FF0000EB8
:10064800012303EB830371454FEA43030EF1010EC7
:10065800F7D1303207F8012FB0FBF3F20136B6F5C7
:10066800007F03FB12003FF42CAF013CDAD130309D
:100678000DF11703985599F901203EE658F8040B37
:1006880000285ADB40F0E0800121374601367C1E05
:1006980054440139EBD000220123013203EB8303D8
:1006A8008A424FEA4303F8D1B0FBF3F30027012253
:1006B800013702EB82028F424FEA4202F8D130330F
:1006C80004F8013FB0FBF2F30136B6F5007F02FBF8
:1006D8001300DED140F2FF16F5E658F8043B99F90D
:1006E80001200AF806303E4607E658F8040B0028B1
:1006F8006BD10121741E544401360139B7D000234F
:10070800012201338B424FEA4202FAD1B0FBF2F2E6
:100718000023012701338B424FEA4707FAD1B0FB88
:10072800F7F301363032B6F5007F07FB130004F803
:10073800012FE2D140F2FF16C5E62D2340420AF808
:10074800063003460021414C1A46A4FB0363092ADC
:1007580001F101014FEAD303F6D87E1CB6F5007FFC
:1007680095D1AEE62D2340420AF806300346002113
:10077800DB0801F10101FBD17E1CB6F5007F7FF497
:1007880080AE9EE6DDE9001202F1004303932D23BB
:1007980002910AF80630DDE9022310461946CDE930
:1007A800002302F0A5FB48BB01227E1CB6F5007FA2
:1007B8007FF4E3AE0BE72823254A47E623460021CA
:1007C8001B0901F10101FBD186E6B0FA80F1C1F104
:1007D80020018FE7894691F90030D6E5771C303142
:1007E8000DF11703B7F5007F99553FF4F0AE2E23AE
:1007F8000AF80630EDE60624FAE6374603460022F4
:10080800124E1946A6FB03C3092902F101024FEA59
:10081800D303F6D8C9E73E4626E60E4C57440122D4
:10082800514620462E7000F02DFD0B4B01E0013B98
:1008380002D02A78002AFAD00AF1010ABA452E70A5
:10084800EDD16BE5374691E737467AE7CDCCCCCC8E
:10085800203500002C050020A18601004FF47A7194
:10086800642001F035BE00BF10B1024B02791A7046
:10087800704700BFD904002010B50D4904460D4843
:1008880001F0B6F838B901220A4824FA02F101F059
:100898000BF830B910BD0F21074B084A084801F082
:1008A8000FFE1221044B054A054801F009FE00BF5E
:1008B800903600005C050020283500004C3600000A
:1008C8003C350000844638B50124104D0A46002303
:1008D80061460F482C7000F0EDFF80B92B78022B91
:1008E80018BF642402D109E0013C07D04FF47A71A3
:1008F800012001F0EDFD2B78022BF5D138BD1C212C
:10090800044B054A054801F0DBFD00BFD90400206F
:100918005C050020F8340000383600003C35000043
:10092800A9B170B515460AB9012070BD0346012268
:100938000C46084823FA02F100F0B6FF06460028E4
:10094800F2D120462946FFF7BDFF304670BD012091
:10095800704700BF5C05002038B504460A460023EE
:1009680021460D4800F0F6FF78B901230B4D6424A9
:100978002B7001E0013C07D04FF47A71012001F09F
:10098800A7FD2B78032BF5D138BD2C21044B054A44
:10099800054801F095FD00BF5C050020D904002042
:1009A800F8340000203600003C350000A9B170B5CD
:1009B80015460AB9012070BD034601220C460848B5
:1009C80023FA02F100F070FF06460028F2D1204613
:1009D8002946FFF7C1FF304670BD0120704700BFB0
:1009E8005C050020F0B50546164601220C4683B08A
:1009F800284825FA02F11F468DF8074000F054FFF9
:100A0800002835D10122244D03460DF10701214864
:100A18002A7000F09FFF002836D12B78032B18BFCF
:100A2800642402D109E0013C07D001204FF47A7117
:100A380001F04EFD28780328F5D1012400233A4619
:100A4800314614482C7000F035FFB8B92B78022BCA
:100A580018BF642402D109E0013C07D04FF47A7131
:100A6800012001F035FD2B78022BF5D103B0F0BD44
:100A780040210A4B0A4A0B4801F022FD50210A4B3B
:100A8800074A084801F01CFD4521074B044A054860
:100A980001F016FD5C050020D9040020283500006F
:100AA8000C3600003C350000F83400003AB110B5AF
:100AB8000BB9012010BDFFF795FF002010BD0120E4
:100AC800704700BFF0B50546164601220C4683B0B4
:100AD800284825FA02F11F468DF8074000F0E4FE89
:100AE800002835D10122244D03460DF10701214884
:100AF8002A7000F02FFF002836D12B78032B18BF5F
:100B0800642402D109E0013C07D001204FF47A7136
:100B180001F0DEFC28780328F5D1012400233A46A9
:100B2800314614482C7000F015FFB8B92B78032B08
:100B380018BF642402D109E0013C07D04FF47A7150
:100B4800012001F0C5FC2B78032BF5D103B0F0BDD3
:100B580061210A4B0A4A0B4801F0B2FC71210A4B89
:100B6800074A084801F0ACFC6621074B044A0548CF
:100B780001F0A6FC5C050020D904002028350000FF
:100B8800F83500003C350000F83400003AB110B5E3
:100B98000BB9012010BDFFF795FF002010BD012003
:100BA800704700BFF0B56425002485B0144E009549
:100BB80001237F21B7680DF10F02D0208DF80F4077
:100BC800B84700950123D0202146F7680DF10F02A0
:100BD800B8479DF80F30EA2B0ED14FF0400CB6689D
:100BE800012306210DF10F020095D0208DF80FC0CA
:100BF800B047204605B0F0BD012005B0F0BD00BFEC
:100C080000000020F0B564274C4D89B00446EE681A
:100C18000C232D2105AAD0200097B047BDF81A2033
:100C28009FED474AD2BA06EE902AF8EEE66ABDF87A
:100C38001C20BDF814C0D2BA07EE102A9CFABCF2E8
:100C4800DFED404A05EE902A66EE846A9FED3E5A33
:100C580066EEA46AF8EEE55A009765EE855AC4ED8B
:100C6800006AB8EEC77A394EC4ED035A27EE047A03
:100C7800D6ED005ABDF8162027EE247AD2BA06EE31
:100C8800102ABDF81E2076EEE56AD2BA07EE902A41
:100C980084ED017AC4ED006AF8EEE77AD6ED016AD0
:100CA80067EE847A37EE667A67EEA47AB8EEC66A9B
:100CB800C4ED027A26EE056A84ED017ABDF81820A3
:100CC80096ED027AD2BA84ED046A06EE102A77EE1F
:100CD800C77AB8EEC66AC4ED027A26EE056A08231A
:100CE8001121182084ED056AED6803AAA8479DF82C
:100CF80012301B071FD4BDF90E309FED156A06EEA2
:100D0800903ABDF91030F8EEE66A07EE103ABDF9F0
:100D18000C30B8EEC77A07EE903AF8EEE77A66EE4E
:100D2800866A27EE067A67EE867AC4ED076A84ED4E
:100D3800087AC4ED067A09B0F0BD00BF00000020B3
:100D480000007A3D35FA8E3CCDCC1C3A00050020D7
:100D58000020193E84B070B52DED088B0CAC84E8EA
:100D68000F00DDED10AADDED0F7ADDED116A2AEE38
:100D7800AA3A27EEA7BA26EEA67A3BEE03BA3BEECE
:100D880007BA1BEE102AB6EE005A954B9548964DB9
:100D9800A3EB620295ED004AD0ED005A6BEE052AEE
:100DA8000BEE102A9149924ED1ED004AD6ED003A49
:100DB80025EEA53A24EE047A62EE8B2A64EE240A24
:100DC800B7EE086A37EE037A62EE8B2A23EEA53A6D
:100DD80023EE840A70EEC30A76EE622A25EEA43A60
:100DE80062EE8B2AF7EE008A30EE030A37EE077AB6
:100DF8006AEEA2AA38EEC77A66EEA26A70EEA00A78
:100E080030EE000A67EEA27A67EE272A27EE2A7AE2
:100E180060EE277A20EE260A60EEA66A754A60EE32
:100E2800AA0A92ED01AA37EE407A76EEE26AD2ED8E
:100E3800002ADFED719A92ED028A9FED709A77EEA3
:100E4800E07A77EE222A36EE8AAA37EE888AC2ED51
:100E5800002A82ED01AA62EE892A2AEE09AA27EE63
:100E6800297A66EEA96A9DED0C1ADDED0D1A82ED60
:100E7800028A67EEA97A28EE098A37EE227A76EE98
:100E88008A6A37EE017A9DED0E2A76EEA16A77EE30
:100E9800887A65EEA61A77EE827A24EE47AA24EEBF
:100EA800A72A23EE879A25EEA71A3AEE61AA63EEDF
:100EB800A69A64EE271A39EE019A3AEE42AA24EE6F
:100EC800A62A9FED4F3A64EE872A64EE266A23EE3F
:100ED800A78A79EEE19A39EE429A25EE877A2AEEC8
:100EE80003AA79EEA29A29EE039A38EE268A3AEEF8
:100EF80023AA39EE049A69EE839A38EE478A79EE86
:100F0800A59A28EE038A29EE097A6AEE0A7A38EE5B
:100F1800248A69EEA96A77EE877A28EE087A77EE4E
:100F2800A67A77EE877A17EE902AA3EB620307EE8C
:100F3800103A67EE857A67EE877A67EE877A36EE3B
:100F4800676A26EE076A69EE869A29EE069A28EEFF
:100F5800068A2AEE06AA69EEA9AA69EE090A69EEC6
:100F6800887A2AEE090A70EEAA0A30EE270A70EE8D
:100F7800A00A30EE000A78EEE00A159CC0ED009A4F
:100F880081ED008A86ED00AA85ED009A02F018F836
:100F98006AEE297A29EE087A84ED000A37EEC70A44
:100FA80030EE000A01F0E0FF68EE080A2AEE08AA0F
:100FB80029EE299A70EEAA0A84ED010A70EEA00AB9
:100FC8003AEE090A78EEE00A30EE000A01F0F8FF7E
:100FD80084ED020ABDEC088BBDE8704004B0704790
:100FE800DF59375FEC040020F0040020E8040020FB
:100FF80014000020DC040020CDCC4C3F17B7D138BA
:101008000AD7233B0246034B51680068926807C31E
:10101800704700BFF4040020844630B50B4C00F143
:101028002005A646DCF80000DCF80410DCF80820EF
:10103800DCF80C300CF1100CAC45AEE80F0004F1F4
:101048001004EED1DCF80000206030BD000500205F
:101058002DE9F043642700267A4C85B0A568012362
:101068007F21D0200DF10F0200978DF80F60A8475F
:10107800002840F0C5806425E66801230021D020BF
:101088000DF10F020095B0478146002840F0C88056
:101098009DF80F20EA2A40F0B9804FF0800C0095A7
:1010A80001230DF10F020621A668D0208DF80FC08C
:1010B800B0474FF47A71284601F00AFAA66801236E
:1010C80003210DF10F02D02000958DF80F90B04745
:1010D8000126009506213346A7680DF10F02D0209E
:1010E8008DF80F60B84720234FF0040800957F2142
:1010F800A7688DF80F300DF10F023346D020B8479E
:10110800009549463346A7680DF10F02D0208DF8A7
:101118000F80B8471F2300953146A7688DF80F3018
:101128000DF10F023346D020B84700951121334600
:10113800A7680DF10F02D0208DF80F80B84729233A
:1011480000951421A7688DF80F300DF10F02334672
:10115800D020B84700957F213346A7680DF10F02CC
:10116800D0208DF80F90B847009533460DF10F0247
:101178000321A768D0208DF80F90B8474FF47A71F3
:101188000A2001F0A5F9222300950DF10F020F2185
:10119800A7688DF80F30D0203346B8474FF47A71DE
:1011A800322001F095F90095182033463146E7685A
:1011B8000DF10F02B8478146002837D19DF80F205E
:1011C800092A39D1009533460DF10F02A76832215B
:1011D80018208DF80F60B8474FF47A710A2001F093
:1011E80077F9082000958DF80F0033463121A4685F
:1011F8000DF10F021820A047484605B0BDE8F0835E
:10120800024611490420FFF745F834E704200F4946
:10121800FFF740F84FF00109484605B0BDE8F083F4
:1012280002460B490420FFF735F8F3E7024609495F
:101238004046FFF72FF8EDE740460749FFF72AF841
:10124800E8E700BF0000002050350000943500009A
:1012580074350000B0350000D4350000FEF788BFB3
:10126800022800D070470249024800F077BE00BF4C
:10127800C03600002405002008B5FFF7EFFF002066
:1012880008BD00BF10B4046AA37803F07B03A37001
:101298008378046A03F00303D21A0B44C0E90332CB
:1012A800A37843F08003A370837803F00303022B31
:1012B80006D0036A0A780020DA705DF8044B70479C
:1012C8000B88026A43F47E43D38100205DF8044B07
:1012D800704700BFF0B5846A85B005460F4694464E
:1012E8006E46B4B194E80F0086E80F00EB6920461B
:1012F8001B78A760236084F804C0EB6AE3606B6A1C
:101308009847AC6A1CB196E80F0084E80F0005B056
:10131800F0BD3446EAE700BF012203460878824060
:1013280012F0060F05D0CA6952681278120700F148
:10133800CB8100224FF0010C00F580002DE9F0412F
:1013480000F58C500002C3E907101A704D699878AF
:101358005D628D696CF30100C3E90A2598704878CD
:10136800D44C904214BF65460225987865F3010075
:10137800987091F90B5091F80AE0680905F01F067A
:1013880020300CFA06F644F82060BFF34F8FBFF305
:101398006F8FC94805F1C00650F8267062F31047F0
:1013A80040F8267050F82660C44E4FEA0E1E6719A2
:1013B8005FFA8EFE87F800E346F8253091F905506C
:1013C80091F804E06F0905F01F0820370CFA08F8B7
:1013D80044F82780BFF34F8FBFF36F8F05F1C00725
:1013E80050F8278062F3104840F8278050F827709B
:1013F8004FEA0E1E67195FFA8EFE87F800E346F87B
:10140800253091F9075091F806E06F0905F01F089B
:1014180020370CFA08F844F82780BFF34F8FBFF342
:101428006F8F05F1C00750F8278062F3104840F825
:10143800278050F827704FEA0E1E67195FFA8EFE54
:1014480087F800E346F8253091F9095091F808E04B
:101458006F0905F01F0820370CFA08F844F82780B0
:10146800BFF34F8FBFF36F8F05F1C00750F8278088
:1014780062F3104840F8278050F827004FEA0E1012
:10148800C0B22C4484F8000346F82530EFF31086E8
:101498008CF310884FF000450C788948E540446883
:1014A80024EA05044460406886F31088186A82704C
:1014B800186A0271186A4272186A8272186AC272CD
:1014C800186A428340F2F93208780CFA00FC1CEAE8
:1014D800020F02D040201A6AD0740625012240F279
:1014E800F9301C6A25770C78A240024240F0CA8085
:1014F800CA7848788C78D200032842EA041200F0AF
:10150800D58000280CBFE220F2201C6AD2B22270DB
:101518001A6A9071CC69227B082A00F0C380186A85
:10152800520002F00202427300256278A078D201CC
:10153800400100F02000D2B20243186A05722078F8
:1015480002380128186A40F2A280D2B2C2716068DB
:101558001A6A847854704578147865F30104147015
:10156800C4789474D479007804F0A30400F05C0083
:101578002043D0710020C3E90300C3E90500DC69FA
:101588004D4A94F90540CD6904F1C00152F8216033
:1015980095F800C060F3104642F821600CF0030C87
:1015A80052F82110BFF35F8F4FF0010E61098900D7
:1015B80004F01F0401F1604101F561410EFA04F4E1
:1015C800C1F880410C60D96991F90B4004F1C00160
:1015D80052F8216060F3104642F8216052F8211059
:1015E800BFF35F8F6109890004F01F0401F16041B6
:1015F8000EFA04F401F56141C1F880410C60D96923
:1016080091F9074004F1C00152F8216060F31046D7
:1016180042F8216052F82110BFF35F8F61098900F9
:1016280004F01F0401F160410EFA04F401F5614170
:10163800C1F880410C60D96991F9091001F1C00421
:1016480052F8246060F3104642F8246052F82420CF
:10165800BFF35F8F4A09920001F01F0102F1604257
:101668000EFA01F102F56142C2F8801111601A6A9E
:101678004CF0700C82F802C06989124A19815A60CC
:10168800BDE8F0814FF478401A6A908230E7FF2570
:1016980045702078022808BF42F01002186AD2B2BA
:1016A800C27167E70A201A6A50733DE7F22042F0D8
:1016B80040022AE700E100E000600040E005002069
:1016C800004008405549435303207047EFF3038314
:1016D800103B1F4A5BB203F1C00152F8210020F40D
:1016E800803042F8210052F821201A4A52F823008B
:1016F800C3691B6983B1036903B17047026A00219A
:10170800937803F07F0343F004039370436AC16046
:10171800C3B18022FFF7DEBD0369026A002BEED059
:101728008378C16803F00303022B0CD00B78D370C5
:101738008278D0E9031302F003029B1A1144C0E92E
:101748000313D9E770470B8843F47E43D381EFE74F
:1017580000600040E005002010B582B0EFF303837D
:10176800103B1F4A5BB203F1C00152F8210020F47C
:10177800803042F8210052F821201A4A52F82340BA
:10178800A27802F00303022B236A0CBF198A597945
:10179800A3690CBFC1F30801C9B2019143B9636AD7
:1017A800B3B10422204602B0BDE81040FFF792BD55
:1017B80002F0030201A9606901F0C8FBD4E9052120
:1017C800A37803F003031A44C91AC4E9052109B12F
:1017D80002B010BD636A002BFAD00122E2E700BF15
:1017E80000600040E005002010B5EFF303830E4AC7
:1017F800103B5CB252F82400026A937803F07B0332
:101808009370436A1BB102220021FFF763FD074A68
:1018180004F1C00352F8231021F4803142F8231058
:1018280052F8233010BD00BFE005002000600040E2
:1018380010B5EFF303831A4A103B5CB252F8240048
:10184800837803F00303022B036A0CBF198A5979C2
:1018580093F804C00CBFC1F30801C9B21CF0100F03
:101868000CF0380206D093F81CC01CF0010F08BF1A
:1018780042F0400293F804C00CF0C70C83F804C08F
:10188800436A0BB1FFF726FD064A04F1C00352F87C
:10189800231021F4803142F8231052F8233010BD70
:1018A800E0050020006000400346002059601A72DD
:1018B800704700BF90F808C08161BCF1010F80F843
:1018C8002E30C2613AD090F82AC00023012180F856
:1018D8002D1080F82F3080F8313080F833300262D4
:1018E80090F82D2080F82BC080F82C3043620AB184
:1018F80080F83110B42203699A7090F8303023B917
:10190800512203690020DA727047002290F82A30C9
:1019180080F83020012B0CBF90F8282090F829205F
:101928000369DA7090F82B2090F82C30013A0133D3
:1019380080F82B2080F82C30002070470021436865
:1019480080F82AC05B0043F0010380F8283080F853
:101958002910BAE790F808C08161BCF1010F80F83E
:101968002E30C2613AD090F82AC0002380F82D307A
:1019780080F82F3080F8313080F83330026290F8E8
:101988002D2080F82BC080F82C30436212B101233F
:1019980080F83130B42203699A7090F8303023B956
:1019A800512203690020DA727047002290F82A3029
:1019B80080F83020012B0CBF90F8282090F82920BF
:1019C8000369DA7090F82B2090F82C30013A013333
:1019D80080F82B2080F82C300020704700214368C5
:1019E80080F82AC05B0080F8283080F82910BCE70E
:1019F80003460022F0B50878196000F5800000F56C
:101A08008C500002186188685860087B1872C86991
:101A18005863086AC3E90E20EFF310864FF0010EF1
:101A28008EF310884FF000450C784948E54044682B
:101A380024EA05044460406886F31088F025FA27F4
:101A48001868446A186982701869C5722325A078D5
:101A58001E6900F00300307018698771186966788C
:101A6800467020781E69800040F02000C0B2F071F6
:101A78001869667906721869E678867420791C698F
:101A8800C00040EA0E00C0B260721869314E85721B
:101A98001869314D427391F80DC091F90F004FEA62
:101AA8000C1C2E4C2F185FFA8CFC87F800C346F8E4
:101AB800203000F1C00C54F82C7062F3104744F841
:101AC8002C7054F82C70BFF35F8F4FEA501C4FEA0C
:101AD8008C0C00F01F000CF1604C0EFA00F00CF5B5
:101AE800614CCCF88001CCF80000487B91F91010CB
:101AF80000010D44C0B285F8000346F8213001F119
:101B0800C00054F8205062F3104544F8205054F8AF
:101B18002000BFF35F8F01F01F004909890001F120
:101B280060410EFA00F001F56141C1F880010860DA
:101B38000B49C3E9082283F82D209A6183F82E20E7
:101B4800DA6183F82F20D96083F830201046F0BD81
:101B580000400840E005002000E100E0006000408F
:101B68004332495330B5836B83B004460A466D4609
:101B78008BB193E8030085E80300E16B1A711960E3
:101B88001846636B9847A36B1BB195E8030083E87D
:101B9800030003B030BD2B46EFE700BF10B4EFF3EE
:101BA8000383103B4E4A5BB2C03352F8231021F432
:101BB800803142F8231052F82330EFF30383494A67
:101BC800103B5BB252F823301A69117BC1F3000C49
:101BD800C9072CD493F82C1093F82A00884214D003
:101BE80093F82D0008B102294FD093F82810D1702E
:101BF80093F82B1093F82C200139013283F82B101D
:101C080083F82C205DF8044B7047196A002933D0FB
:101C180093F82D0000283ED1586A9C690139245C4C
:101C28000130C3E90810D4705DF8044B704793F88D
:101C38002D10B9B193F83110A1B9507999695A6A40
:101C4800885493F82E00D3E9081201390132C3E908
:101C5800081200283AD0522001221969C87283F864
:101C68003020CFE70024012054211C6283F82F0084
:101C7800D1725DF8044B704793F82E1041B1522091
:101C88000121D07283F83010BCE75223D372B9E730
:101C98005423D372B6E793F8310078B9507999692B
:101CA8005A6A8854D3E9081201390132C3E9081283
:101CB80001291A690ED0FF24D470B5E7012983F8E9
:101CC80031C007D082F80AC0196AF1E754221B69AB
:101CD800DA7297E72021FF2491721A69D470A3E77A
:101CE80000600040E005002010B5EFF30383344A9C
:101CF800103B5BB252F823000269D37A23F0080341
:101D0800D37290F82F30002B3DD190F82A2003F0A1
:101D1800FF0190F82C309A421CD1036A5BB990F805
:101D28002D1090F83020C1F103010469C9B2C2B383
:101D3800E372FFF717FFEFF30383103B214A5BB20F
:101D4800C03352F8231021F4803142F8231052F89E
:101D5800233010BDF3B190F82D4004F0FF0244B3D6
:101D6800022B28D00B4600210269D1720269D37078
:101D780090F82B2090F82C30013A013380F82B2072
:101D880080F82C30D7E7F02203690121DA72FFF7D7
:101D9800E9FED0E7012A0CBF90F8283090F82930E6
:101DA800E1E7F023E3720269937803F0CF039370BD
:101DB800BFE71346D7E790F8293043F00103D2E78D
:101DC800E0050020006000402DE9F84F0388DBB1F2
:101DD80082464FF0000B4FF00109DFF8D080002455
:101DE800304D4FEACB07DAF8043035F8022BD91911
:101DF800898891420AD00134032CF4D1BAF8003012
:101E08000BF1010B5B45EAD8BDE8F88FDB5909FAFD
:101E180004F603F0B853B3F1807FF6B298F8BB34F8
:101E280013D0334231D1204A04F1200612F816307B
:101E3800DB09E0D012F81630012123F08003C82016
:101E480002F8163000F044FBD5E7334211D0164AA9
:101E580004F1200112F81130DB09CCD112F811304D
:101E6800C82043F0800302F81130012100F030FB54
:101E7800C1E7012000F00AFC98F8BB340120334385
:101E880088F8BB3400F0D2FBE1E7012000F0FEFB4C
:101E980098F8BB34012023EA060388F8BB3400F025
:101EA800C5FBC0E7203700000030084000E00140D3
:101EB800F8B50646FFF788FFEFF31082012383F396
:101EC8001088234F3B681BB92249CB704023CB7045
:101ED8003B6801333B6082F31088338823B30021C9
:101EE8001D4D08E01B01134445F823403288013199
:101EF8008BB29A4218D9736853F8314003EBC10288
:101F08009288E0034FEA1223D2B2EBD502EB03101A
:101F180055F820E024F4803C2EF4803E45F820E07B
:101F28001B0145F820C0DEE7EFF31082012383F39D
:101F380010883B6813B13B68013B3B603B681BB9A9
:101F480080200449CB70C87082F31088F8BD00BFA8
:101F5800DC050020000D08400008084008B5034BC8
:101F680003600846FFF7A4FF002008BD54524F50F5
:101F780070B5836984B004468C46164601AD9BB1A2
:101F880093E8070085E8070083F804C09E60E269CB
:101F980018461A6063699847A3691BB195E807005A
:101FA80083E8070004B070BD2B46EDE701462DE934
:101FB800F047EFF30383103B4FFA83FE2D4C0EF1ED
:101FC800C00503F0FF0C54F8253023F4803344F89F
:101FD80025304FEA8E0303F1804303F5C043D3F85D
:101FE8000023254A52F82E000A1F012A08D9002288
:101FF80043691BB1BDE8F047FFF7BABFBDE8F087FA
:102008004668F26992F8482012F00307EFD196F873
:1020180000A0D0F8088001F10E0208EB8202033913
:10202800BAF1010F5268C9B2E2D14FF00049C8F8BD
:1020380010908668C6F814908668C6F81890866866
:1020480077628668B76254F8258067F3104844F8C9
:102058002580D3F80033BFF35F8F0CF01F030AFA13
:1020680003F64FEA5E1E054B0EF1600E43F82E6034
:10207800BEE700BF00600040E005002000E100E08E
:102088002DE9F041EFF30383103B7B4C59B201F18A
:10209800C00E54F82E2022F4803244F82E208A00F4
:1020A80002F1804202F5C042D2F80003734850F8AA
:1020B8002100456895F800C0ED69BCF1010F09D011
:1020C80043692BB1BDE8F04100221146FFF750BF2C
:1020D800BDE8F0814FF00008D0E90276BE6086685E
:1020E80003F0FF03C6F848808668C6F84C80866807
:1020F800C6F8508054F82E7068F3104744F82E70D4
:10210800D2F80023BFF35F8F5D4A490903F01F032C
:102118000CFA03F3603142F8213095F84830D907BA
:1021280003D595F92810414576DA9B0704D595F92A
:102138002930002B80F2888095F92A30002B53DA59
:1021480095F92B30002B37DA95F92C30002B1BDA58
:1021580095F92D30002BB3DB474A03F1C00152F843
:10216800214024F4803442F8214052F82120BFF362
:102178005F8F01215A09424C03F01F03603201FAB4
:1021880003F344F822309BE73B4A03F1C00152F8BD
:10219800214024F4803442F8214052F82120BFF332
:1021A8005F8F01215A09364C03F01F03603201FA90
:1021B80003F344F82230CBE72F4A03F1C00152F869
:1021C800214024F4803442F8214052F82120BFF302
:1021D8005F8F01215A092A4C03F01F03603201FA6C
:1021E80003F344F82230AFE7234A03F1C00152F861
:1021F800214024F4803442F8214052F82120BFF3D2
:102208005F8F01215A091E4C03F01F03603201FA47
:1022180003F344F8223093E701F1C00354F8237024
:1022280068F3104744F8237054F82330BFF35F8FE6
:102238004C0901F01F010CFA01F304F1600142F8A6
:10224800213095F8483070E70B4A03F1C00152F885
:10225800214024F4803442F8214052F82120BFF371
:102268005F8F01215A09064C03F01F03603201FAFF
:1022780003F344F822305FE700600040E0050020E7
:1022880000E100E00420FFF791BE00BF0520FFF742
:102298008DBE00BF064B074993F826001A6A51F80D
:1022A8002030C2F302620449D3400B60704700BF7C
:1022B80000E00140A004002010060020704700BF85
:1022C800F8B54AF2035001234549464AA1F8FE03EE
:1022D800A2F80431B2F804319BB2002BFAD10120E4
:1022E8004FF400454FF0090C3F4CDFF818E13F4E22
:1022F800C4F804E0DFF810E13D4FC4F80CE0A2F8A0
:1023080000013C4A3649B06030602760A56025610D
:10231800626191F82620086A54F82220364EC0F3EC
:102328000260C240326081F8133481F8A2C091F88B
:1023380080341BB991F8813499074CD0284D95F811
:102348008034002B3CD00022254B83F8812483F86D
:1023580080240023224981F8323091F83C301A0752
:10236800FBD543F2021000231D4A088581F82A3064
:1023780092F83C309B06FBD50320052319494FF002
:10238800F10C81F81C011D49116282F8263092F87F
:102398002630156A54F82300C5F30264E040306023
:1023A8000123F0244FF42540154981F80CC00B7225
:1023B8000C7382F8303082F85230A2F8FE03F8BD70
:1023C8000121C82085F8801400F082F895F880343F
:1023D800012BFBD1B7E74FF47A70FFF76FFFB8E72F
:1023E80000E0014000C00140A0040020007000404F
:1023F800002D310100C2EB0B100600202112012034
:102408000020004000127A0000366E0138B5002521
:10241800284C0121C82084F8285000F059F884F885
:10242800245094F82430002BFBD194F8243021490F
:1024380043F0020384F8243091F82430C3F34000B9
:102448009B07F9D41B4A81F8220092F8223003F046
:10245800FF00002BF9D192F84030164960F3C713FA
:1024680082F8403091F84030DB09FBD191F8420006
:10247800104A63F3C71081F8420092F84230DB0932
:10248800FBD192F844000B4963F3C71082F844006B
:1024980091F84430C3F3C014DB09F9D1012000F0EE
:1024A800F5F8054B012083F8BB44BDE8384000F03F
:1024B800BDB800BF0030084000E00140704700BFD1
:1024C80000BEFEE7A0F101000028FBD1704700BF65
:1024D8001F4B204A1B6800FB01F1934213D302F102
:1024E800854202F5071203F5741302F6834203F6D8
:1024F800FF03A2FB03231B0DA3FB01314FF0FF30A9
:10250800F9B1FFF7DFBF4FF47A7210B4A1FB02C430
:102518001148B0FBF3F34FF0FF3044B9BCFBF3FCB8
:102528004FEA9C0088B15DF8044BFFF7CBBF9B00D6
:10253800B1FBF3F1A1FB0212002AF4D1084620B145
:10254800F1E71846002BDCD170475DF8044B704763
:102558001006002000127A0000CA9A3B70B50024C9
:102568000B4B0C4EB3F82021B3F84051ADB21540D7
:1025780025FA04F3DB0704D556F82430E0B203B19A
:1025880098470134102CF3D1014BA3F8305170BD9A
:10259800006000409C05002030B5032085B000F0A5
:1025A80075F800256FF0FF014FF0FF301B4B1C4CF6
:1025B800996422462B464FF0010ECDE901000390A5
:1025C80032F8021F0EFA03FC013311B1012520EA8B
:1025D8000C00092BF4D1F5B10190124B0F4A10678A
:1025E800C3F88002029903205167C3F88412039943
:1025F8009167C3F8881200F019F800230A4834F8E4
:10260800022F03F1C00101330AB140F82120092B40
:10261800F5D105B030BD4FF0FF30DEE70080004057
:102628000A37000000E100E000600040EFF310818D
:10263800012383F31088124B33F8102092B22AB189
:1026480033F81020013A92B223F8102033F81030F2
:102658009BB293B910B40B4A0B4CB2F8FE3334F862
:1026680010009BB243F4254323EA0003A2F8FE338B
:1026780081F310885DF8044B704781F31088704728
:102688000406002000E001400038000030B4EFF3F9
:102698001081012383F310880E4A32F810309BB260
:1026A8006BB90D4C0D4DB4F8FE3335F810C09BB224
:1026B80043EA0C0343F425439BB2A4F8FE3332F8F3
:1026C800103001339BB222F8103081F3108830BCEF
:1026D800704700BF0406002000E0014000380000F9
:1026E80000BE704708B500F035F8FEF7C5FDFEE7F7
:1026F800F8B5174F05463E68A6B17C6806EB460656
:1027080004EB860602E00C34B4420BD0637AAB4289
:10271800F9D1D4E900020021121A0C3400F008FCA7
:10272800B442F3D1BE6896B1FC6804EB061602E029
:102738001034A6420BD0637BAB42F9D1D4E9000236
:10274800A168121A103400F001FCA642F3D1F8BDBA
:10275800283700004FF47001274B284A70B5002035
:10276800C3F888109A60FEF77BFDFFF7A9FD0120EA
:10277800FEF776FD224B83F30A880020FFF7B8FFA7
:10278800FFF788FDFFF742FE0320FFF77FFF0023D6
:102798004FF6FF701B4903F1080201330C2B21F897
:1027A8001200F8D100240320FFF740FF0320FFF7B1
:1027B8006DFF154B03205C609C60DC601C61FFF7BB
:1027C80035FF0220FEF74CFD0120FFF791FF0F4D6A
:1027D8000F4B5B1BA3424FEAA30605DD55F8043BEC
:1027E80001349847A642F9DCFFF7D6FEBDE87040F1
:1027F8000020FFF763BE00BF00ED00E0000000000E
:10280800A0000020000D084000000E409C39000088
:10281800A039000070B54FF0FF0C4CF4E06C1CEAD6
:1028280011541DBF1CEA135594EA0C0F95EA0C0FBE
:1028380000F0DEF82C4481EA030621EA4C5123EA31
:102848004C5350EA013518BF52EA033541F4801160
:1028580043F4801338D0A0FB02CE4FF00005E1FB13
:1028680002E506F00042E0FB03E54FF00006E1FB5D
:1028780003569CF0000F18BF4EF0010EA4F1FF04A0
:10288800B6F5007F64F5407404D25FEA4E0E6D41E0
:1028980046EB060642EAC62141EA55514FEAC520F1
:1028A80040EA5E504FEACE2EB4F1FD0C88BFBCF56D
:1028B800E06F1ED8BEF1004F08BF5FEA500E50F11E
:1028C800000041EB045170BD06F0004646EA0101E4
:1028D80040EA020081EA0301B4EB5C04C2BFD4EB16
:1028E8000C0541EA045170BD41F480114FF0000E0F
:1028F800013C00F3AB8014F1360FDEBF002001F07D
:10290800004170BDC4F10004203C35DA0C341BDCF6
:1029180004F11404C4F1200500FA05F320FA04F0C8
:1029280001FA05F240EA020001F0004221F00041FC
:1029380010EBD37021FA04F642EB06015EEA430E6F
:1029480008BF20EAD37070BDC4F10C04C4F120059F
:1029580000FA04F320FA05F001FA04F240EA020052
:1029680001F0004110EBD37041F100015EEA430E23
:1029780008BF20EAD37070BDC4F1200500FA05F243
:102988004EEA020E20FA04F301FA05F243EA0203C2
:1029980021FA04F001F0004121FA04F220EA0200D1
:1029A80000EBD3705EEA430E08BF20EAD37070BD17
:1029B80094F0000F0FD101F00046400041EB0101F7
:1029C80011F4801F08BF013CF7D041EA060195F0D9
:1029D800000F18BF704703F00046520043EB030393
:1029E80013F4801F08BF013DF7D043EA0603704780
:1029F80094EA0C0F0CEA135518BF95EA0C0F0CD08B
:102A080050EA410618BF52EA4306D1D181EA0301D0
:102A180001F000414FF0000070BD50EA410606BFCA
:102A28001046194652EA430619D094EA0C0F02D10F
:102A380050EA013613D195EA0C0F05D152EA033654
:102A48001CBF104619460AD181EA030101F0004172
:102A580041F0FE4141F470014FF0000070BD41F0BB
:102A6800FE4141F4780170BD81F0004102E000BFF1
:102A780083F0004330B54FEA41044FEA430594EA36
:102A8800050F08BF90EA020F1FBF54EA000C55EA71
:102A9800020C7FEA645C7FEA655C00F0E2804FEA42
:102AA8005454D4EB5555B8BF6D420CDD2C4480EA24
:102AB800020281EA030382EA000083EA010180EA54
:102AC800020281EA0303362D88BF30BD11F0004FA2
:102AD8004FEA01314FF4801C4CEA113102D04042D8
:102AE80061EB410113F0004F4FEA03334CEA133313
:102AF80002D0524263EB430394EA050F00F0A7802B
:102B0800A4F10104D5F1200E0DDB02FA0EFC22FA25
:102B180005F2801841F1000103FA0EF2801843FA19
:102B280005F359410EE0A5F120050EF1200E012A0A
:102B380003FA0EFC28BF4CF0020C43FA05F3C01848
:102B480051EBE37101F0004507D54FF0000EDCF1C1
:102B5800000C7EEB00006EEB0101B1F5801F1BD36A
:102B6800B1F5001F0CD349085FEA30004FEA3C0C6E
:102B780004F101044FEA445212F5800F80F09A8064
:102B8800BCF1004F08BF5FEA500C50F1000041EB68
:102B9800045141EA050130BD5FEA4C0C404141EB6C
:102BA8000101013C28BFB1F5801FE9D291F0000F67
:102BB80004BF01460020B1FA81F308BF2033A3F116
:102BC8000B03B3F120020CDA0C3208DD02F1140C0D
:102BD800C2F10C0201FA0CF021FA02F10CE002F148
:102BE8001402D8BFC2F1200C01FA02F120FA0CFC41
:102BF800DCBF41EA0C019040E41AA2BF01EB04518A
:102C0800294330BD6FEA04041F3C1CDA0C340EDC87
:102C180004F11404C4F1200220FA04F001FA02F3CA
:102C280040EA030021FA04F345EA030130BDC4F188
:102C38000C04C4F1200220FA02F001FA04F340EA7D
:102C48000300294630BD21FA04F0294630BD94F02E
:102C5800000F83F4801306BF81F480110134013D15
:102C68004EE77FEA645C18BF7FEA655C29D094EA86
:102C7800050F08BF90EA020F05D054EA000C04BF04
:102C88001946104630BD91EA030F1EBF00210020EF
:102C980030BD5FEA545C05D14000494128BF41F08E
:102CA800004130BD14F580043CBF01F5801130BDF2
:102CB80001F0004545F0FE4141F470014FF000007D
:102CC80030BD7FEA645C1ABF194610467FEA655C2E
:102CD8001CBF0B46024650EA013406BF52EA0335D0
:102CE80091EA030F41F4002130BD00BF90F0000FBE
:102CF80004BF0021704730B54FF4806404F13204FA
:102D08004FF000054FF0000150E700BF90F0000FB2
:102D180004BF0021704730B54FF4806404F13204D9
:102D280010F0004548BF40424FF000013EE700BFA9
:102D380042004FEAE2014FEA31014FEA02701FBF39
:102D480012F07F4393F07F4F81F06051704732F06B
:102D58007F4208BF704793F07F4F04BF41F40021C2
:102D6800704730B54FF4607401F0004521F0004120
:102D78001CE700BF50EA010208BF704730B54FF0AA
:102D880000050AE050EA010208BF704730B511F0AB
:102D9800004502D5404261EB41014FF4806404F1E3
:102DA80032045FEA915C3FF4D8AE4FF003025FEA69
:102DB800DC0C18BF03325FEADC0C18BF033202EBED
:102DC800DC02C2F1200300FA03FC20FA02F001FA47
:102DD80003FE40EA0E0021FA02F11444BDE600BFEA
:102DE8004FF0FF3C06E000BF4FF0010C02E000BFCF
:102DF8004FF0010C4DF804CD4FEA410C7FEA6C5CB2
:102E08004FEA430C18BF7FEA6C5C1BD001B050EA54
:102E1800410C0CBF52EA430C91EA030F02BF90EA3F
:102E2800020F0020704710F1000F91EA030F58BFFE
:102E3800994208BF90422CBFD8176FEAE37040F060
:102E4800010070474FEA410C7FEA6C5C02D150EAFE
:102E5800013C07D14FEA430C7FEA6C5CD6D152EAB9
:102E6800033CD3D05DF8040B704700BF844610467E
:102E780062468C461946634600E000BF01B5FFF77D
:102E8800B7FF002848BF10F1000F01BD4DF808ED4D
:102E9800FFF7F4FF0CBF012000205DF808FB00BF1E
:102EA8004DF808EDFFF7EAFF34BF012000205DF878
:102EB80008FB00BF4DF808EDFFF7E0FF94BF0120C5
:102EC80000205DF808FB00BF4DF808EDFFF7CEFFC6
:102ED80094BF012000205DF808FB00BF4DF808ED05
:102EE800FFF7C4FF34BF012000205DF808FB00BFD6
:102EF8004A0011D212F5001211D20DD56FF4787371
:102F0800B3EB62520ED44FEAC12343F0004343EAC5
:102F1800505323FA02F070474FF00000704750EA10
:102F2800013002D14FF0FF3070474FF0000070477A
:102F380002440346934200D1704703F8011BF9E7A6
:102F4800014B1868704700BF340000200A44431E34
:102F5800914200D1704710B511F8014B914203F826
:102F6800014FF9D110BD000008B52DED028BB0EE70
:102F7800408A00F035F8F0EE408AB4EE488AF1EE67
:102F880010FA0AD6B0EE480A00F01CF8F7EE007AFC
:102F9800B4EEE70AF1EE10FA04DCB0EE680ABDEC14
:102FA800028B08BDFFF7CCFF212203460348BDEC86
:102FB800028B1A60BDE8084000F00CB8E835000044
:102FC80000F00AB910EE103A23F0004300EE103A70
:102FD800704700BF9FED010A704700BF0000C07F27
:102FE80038B510EE105AF0EE407A25F00044B4F1EE
:102FF8007E5F2DED048B7FD077D8B4F17C5F0ED245
:10300800B4F1485F80F092809FED637AF7EE006A32
:1030180030EE077AB4EEE67AF1EE10FA62DCB0EE42
:10302800670ADFED5E8AFFF7CDFFF7EE007AF6EE6E
:10303800006A9FED5B3A9FED5B4A37EEC08ADFED91
:103048005A3ADFED5A4A9FED5A5A28EE268ADFEDA2
:10305800595A9FED596ADFED596AA8EE034A9FED68
:10306800587AE8EE234AB0EE480AA4EE085AE4EE8D
:10307800885AA5EE086AE5EE886AA6EE087AE6EEB2
:10308800887AE7EE088AB0EE679A00F023FA4D4B8B
:103098009C4268EE888A3AD810EE103A70EE007AB0
:1030A800B0EE006A9FED487A6FF30B0388EE895AF9
:1030B80006EE903AA6EEE68A70EE264A9FED430A9F
:1030C800F0EE405AE6EEC65AC8EE246AA6EEC67A74
:1030D80097EE857A77EE657A30EE670A002D01DC87
:1030E800B1EE400ABDEC048B38BD70EE407ABDEC01
:1030F800048B87EEA70A38BD9FED330A9FED347A1B
:1031080027EE800ABDEC048BA7EE870A38BD88EE4F
:10311800896A9FED307ADFED2E7AF0EE006AA0EE34
:10312800060AA0EE267A37EEC70AD7E720EE007A1D
:103138009FED1B6ADFED1B2ADFED1D3AE7EE062A3D
:10314800DFED196A9FED193AB7EE006ADFED1A4A0A
:10315800A7EE263A9FED174ADFED195A9FED175A49
:10316800E2EE873ADFED0D6ABDEC048BA3EE074A69
:10317800E3EE874AA4EE075AE4EE875AA5EE076AFB
:10318800E5EE876A26EE877AC7EE066AE0EE267ACB
:10319800B0EE670A38BD00BFCAF24971ABAA2A3E31
:1031A80008EF1138047F4F3A2EC69D3D613330BF7A
:1031B800461124BD2D570140A80A4E3E39D119C0E9
:1031C80090B0A6BE9999793F2EBD3BB3DB0F493F1E
:1031D800DB0FC93F2EBD3B3310EE903A30B523F0DC
:1031E800004583B0B5F1FF4F8DED010A01982CDC45
:1031F80020F00041B1F1FF4F27DCB3F17E5F38D0FA
:103208009C1704F0020444EAD07451B9022C2DD062
:10321800DFED3E7A032C9DED017A07FE870A03B0A5
:1032280030BDD5B1B5F1FF4F28D0B1F1FF4F14D063
:10323800491BB1F1F45F4FEAE1502CDA002B43DA75
:103248003C3041DA9FED320A27E007EE903A9DEDD7
:10325800017A37EE870A03B030BDDFED2E7A0028F9
:103268009FED2D0A27FE800A03B030BD9FED2B0A83
:10327800F1E703B0BDE8304000F05AB8B1F1FF4FB4
:1032880004F1FF3418D0022C39D8254B03EB840302
:1032980093ED000ADFE79FED1F0A012C28D0022CCE
:1032A8001DD0002CD7D09FED1F7ADFED1C7A30EEB1
:1032B800070A30EE670ACEE7022C23D81A4B03EB35
:1032C800840393ED000AC6E7DDED017A07EE103AB4
:1032D80087EE870AFFF776FE00F02AF8DDE79FED14
:1032E800117ADFED0E7A30EE070A37EEC00AB2E740
:1032F80010EE103A03F1004300EE103AABE79FEDF1
:10330800040AA8E79FED090AA5E700BFDB0F49C03B
:1033180000000000DB0FC93FDB0FC9BFDB0F4940CE
:103328000C3900002EBDBB3318390000DB0F493FB4
:1033380038B510EE105AF0EE407A25F00044B4F19A
:10334800A14F0AD3B4F1FF4F58D8DFED4F7A002DC3
:103358009FED4E7A37FE270A38BD4D4B9C425CD80C
:10336800B4F1445F4DD34FF0FF3327EEA76ADFED8A
:10337800491A9FED492A5A1CDFED485A66EE066A3B
:10338800DFED472A9FED473ADFED473AA6EEA12A3F
:103398009FED464AE6EEA52ADFED454A9FED455AE0
:1033A8009FED457ADFED455AA2EE263AE2EEA63ABF
:1033B800A3EE264AE3EEA64AA4EE265AA4EEA67A7F
:1033C800E5EE265A27EE267AA5EE867A27EE877A44
:1033D80038D03B49002D3B4A01EB830102EB8303C4
:1033E80091ED006AD3ED006A37EE467A37EE677AD8
:1033F80036EEC70AB0DAB1EE400A38BD30EE000A40
:1034080038BD9FED317AF7EE006A30EE077AB4EEF8
:10341800E67AF1EE10FAA6DD38BDFFF7D3FD2B4BA7
:103428009C4212D8A3F5D0039C4223D8F0EE007A30
:103438000023BFEE007AA0EE277A30EE270AC7EE07
:10344800007A92E737EEC70A38BD214B9C420BD869
:10345800F7EE087A0223B7EE007AA0EE277A30EE6C
:10346800670AC0EE077A80E7BFEE007A0323C7EE4B
:10347800007A7AE7F7EE007A012330EE677A30EEC9
:10348800270AC7EE007A70E7DB0FC9BFDB0FC93F19
:10349800FFFFDF3ED769853C59DA4B3D21A215BDB8
:1034A8006BF16EBD356B883D95879DBD6E2EBA3D1F
:1034B800388EE3BD2549123ECDCC4CBEABAAAA3E00
:1034C8002439000034390000CAF24971FFFF973FE0
:1034D800FFFF1B40B1EEC00A704700BF252E3266C1
:1034E80020252E326620252E3266200D0A00000087
:1034F8004653505F53554343455353203D3D206544
:10350800727200002E2E2F7372632F554152542F62
:10351800756172742E630000286E756C6C2900004A
:10352800657272203D3D204653505F5355434345D5
:10353800535300002E2E2F7372632F4949432F498E
:1035480049432E630000000077726974655F7265F5
:1035580067205245475F42414E4B5F53454C2066BA
:1035680061696C65643A2025640D0A0072656164BE
:103578005F7265672057484F5F414D5F492066611C
:10358800696C65643A2025640D0A000049434D3290
:10359800303934382057484F5F414D5F49203D202E
:1035A800307825780D0A0000726561645F7265677E
:1035B80020414B30393931362057494120666169FD
:1035C8006C65643A2025640D0A000000414B3039CF
:1035D80039313620574941203D20307825780D0A69
:1035E80000000000756172745F696E697400000004
:1035F8005343495F494943325F77726974655F7223
:10360800656700005343495F494943325F7265610A
:10361800645F7265670000005343495F494943325C
:103628005F77726974655F62797465730000000082
:103638005343495F494943325F726561645F627908
:10364800746573005343495F494943325F496E6962
:1036580074000000040200000C000C010C020C03B2
:1036680000000000000000008902000000000000C7
:103678007C36000000010000300000200F00FFFF32
:1036880000000000FFFF000002000000A08601000B
:1036980068000000010CDF040500000000000000C5
:1036A800000000007108000000000000B8360000AB
:1036B800011400AC1E01000008000000CC36000018
:1036C80000000000000001000801000040000104A3
:1036D8000C010000400001040D010000000001037E
:1036E8000E010000000001000003000000000103BB
:1036F80005040000000001040B050000000001049F
:103708000C050000980199019A019B018D018E0119
:10371800D800D200D300000002040304040400000F
:1037280004000000D03700000800000050370000F7
:103738000200000040370000000000680000006838
:10374800A0000020A0000020000000680000006821
:103758000000006000010C0800000068000000681C
:1037680000000070000109080000006800000068FF
:10377800000000080001020800000068000000685E
:103788006400000000010108000000200000002083
:103798000000006000010C03000000200000002071
:1037A8000000007000010903000000200000002054
:1037B8000000000800000203000000208400002030
:1037C80064000000000001030000006800000068B9
:1037D80000010008000000680000006800010008FF
:1037E80084000020A000002000000003BC0400208A
:1037F8004C07002000000003010002000800100030
:1038080020000020202020202020202028282828D0
:103818002820202020202020202020202020202098
:1038280020202088101010101010101010101010E8
:1038380010101004040404040404040404101010F8
:1038480010101010414141414141010101010101A4
:103858000101010101010101010101010101101032
:103868001010101042424242424202020202020278
:103878000202020202020202020202020202101004
:1038880010102000000000000000000000000000F0
:103898000000000000000000000000000000000020
:1038A8000000000000000000000000000000000010
:1038B8000000000000000000000000000000000000
:1038C80000000000000000000000000000000000F0
:1038D80000000000000000000000000000000000E0
:1038E80000000000000000000000000000000000D0
:1038F80000000000000000000000000000000000C0
:103908000000000000000080DB0F4940DB0F49C0C9
:10391800DB0F49BFE4CB1640E4CB16C06937AC31A6
:1039280068212233B40F14336821A2333863ED3E83
:10393800DA0F493F5E987B3FDA0FC93F4275696CE1
:103948007420776974682052656E657361732041CD
:103958006476616E63656420466C657869626C653F
:1039680020536F667477617265205061636B61677D
:10397800652076657273696F6E20362E332E30009F
:0C398800362E332E300000000000030635
:04399400F8B500BFC3
:04399800F8B500BFBF
:04399C0055010000D1
:0439A0002D010000F5
:020000040100F9
:04A10000FFFFFFFF5F
:04A20000FFFDFFFF60
:04A28000F8F8FFFFEC
:04000003000026EDE6
:00000001FF
